:100000000C9434000C9451000C9451000C94510049
:100010000C9451000C9451000C9451000C9451001C
:100020000C9451000C9451000C9451000C9411014B
:100030000C9451000C9451000C9451000C945100FC
:100040000C9451000C9451000C94E2000C9451005B
:100050000C9451000C9451000C9451000C945100DC
:100060000C9451000C94510011241FBECFEFD8E026
:10007000DEBFCDBF11E0A0E0B1E0E4E2F3E002C0FA
:1000800005900D92A631B107D9F721E0A6E1B1E0C4
:1000900001C01D92AD31B207E1F70E944D010C94F1
:1000A00090010C9400009091C00095FFFCCF8093CC
:1000B000C6000895EF92FF920F931F93CF93DF93A3
:1000C000CDB7DEB764970FB6F894DEBF0FBECDBFD5
:1000D000289A83E39FE40197F1F72898F89481E048
:1000E00080931C0110921B017894199B05C080918C
:1000F0001B018823D1F32DC080E489B98E010F5FE5
:100100001F4F7E0195E1E90EF11CF801108298E085
:10011000289AA6EEB0E01197F1F70000808186954D
:100120008083199B02C0806880832898A6EEB0E087
:100130001197F1F70000915059F73196EE15FF0530
:1001400029F7F80181918F010E9453000E151F05B8
:10015000C1F764960FB6F894DEBF0FBECDBFDF9136
:10016000CF911F910F91FF90EF900895F894009711
:1001700021F0019729F485E001C08AE080931A01FB
:1001800081E0809319018093000178948091190196
:100190008111FCCF80910001882399F0F89410928E
:1001A0001801789480911801811104C08091000198
:1001B0008111F8CF80910001882319F00E945A0024
:1001C000E9CF08951F920F920FB60F9211242F932B
:1001D0003F938F939F93EF93FF93E091C600E35675
:1001E000E231A0F4F0E0ED5FFE4F808190E00097F7
:1001F00069F020910101309102018217930731F0DB
:10020000109200019093020180930101FF91EF9100
:100210009F918F913F912F910F900FBE0F901F9044
:1002200018951F920F920FB60F9211248F939F93E0
:1002300080911C01882329F010921C011092170153
:100240000BC080911701833020F48F5F80931701DA
:1002500003C081E080931B0180911901882329F05C
:1002600010921901109216010FC080911601909101
:100270001A01891720F48F5F8093160105C0109230
:10028000160181E08093180180E889B99F918F91D0
:100290000F900FBE0F901F90189583E090E0909301
:1002A000C5008093C40088E98093C100209A80EC47
:1002B0008AB98DE0809381008FEC92E09093890061
:1002C0008093880082E080936F007894C1E08091F1
:1002D0000101909102018F369105D1F0843791058B
:1002E000D1F08336910599F7F894C0930001789482
:1002F00080910001882359F30E945A002FEF8FE16B
:1003000091E0215080409040E1F700C00000F0CF24
:1003100080E090E002C081E090E00E94B600D7CF7C
:04032000F894FFCF7F
:100324000163006300000000000000000000006F93
:060334000000000074004F
:00000001FF
